{
  "transactions": [
    {
      "hash": "0xff19872425b2b3e58dedd2b037bbbe1d1bbdf6ffb83d4daf433c6cebfa9c0a35",
      "transactionType": "CALL",
      "contractName": null,
      "contractAddress": "0x8d8dcdc97ca5691d9d8af6a715ba98033dba5a34",
      "function": "transferOwnership(address)",
      "arguments": [
        "0xE60B7f77FE721e40210Cb9070F31Bfed6565232a"
      ],
      "transaction": {
        "from": "0x4cf877aca8ed18372bb28791c0c69339c27f7d78",
        "to": "0x8d8dcdc97ca5691d9d8af6a715ba98033dba5a34",
        "gas": "0xc582",
        "value": "0x0",
        "input": "0xf2fde38b000000000000000000000000e60b7f77fe721e40210cb9070f31bfed6565232a",
        "nonce": "0x3b",
        "chainId": "0x45c"
      },
      "additionalContracts": [],
      "isFixedGasLimit": false
    },
    {
      "hash": "0x46ef3659aab699e43eb2d343ea949d5ad9777968db5d126495ab97cd703aa357",
      "transactionType": "CALL",
      "contractName": null,
      "contractAddress": "0x436601d3e1d2d1dfa0010be24331e85e12f1524c",
      "function": "transferOwnership(address)",
      "arguments": [
        "0xE60B7f77FE721e40210Cb9070F31Bfed6565232a"
      ],
      "transaction": {
        "from": "0x4cf877aca8ed18372bb28791c0c69339c27f7d78",
        "to": "0x436601d3e1d2d1dfa0010be24331e85e12f1524c",
        "gas": "0xd000",
        "value": "0x0",
        "input": "0xf2fde38b000000000000000000000000e60b7f77fe721e40210cb9070f31bfed6565232a",
        "nonce": "0x3c",
        "chainId": "0x45c"
      },
      "additionalContracts": [],
      "isFixedGasLimit": false
    }
  ],
  "receipts": [
    {
      "status": "0x1",
      "cumulativeGasUsed": "0x53361",
      "logs": [
        {
          "address": "0x8d8dcdc97ca5691d9d8af6a715ba98033dba5a34",
          "topics": [
            "0x8be0079c531659141344cd1fd0a4f28419497f9722a3daafe3b4186f6b6457e0",
            "0x0000000000000000000000004cf877aca8ed18372bb28791c0c69339c27f7d78",
            "0x000000000000000000000000e60b7f77fe721e40210cb9070f31bfed6565232a"
          ],
          "data": "0x",
          "blockHash": "0xe3bb51f6aefb44ea5c09c5effb3fb2ceeaa55ffac2d8d2f7132f14ecaf84d1e9",
          "blockNumber": "0x1a1c154",
          "transactionHash": "0xff19872425b2b3e58dedd2b037bbbe1d1bbdf6ffb83d4daf433c6cebfa9c0a35",
          "transactionIndex": "0x8",
          "logIndex": "0x6",
          "removed": false
        }
      ],
      "logsBloom": "0x00000000000000000000000000000000000000000000000000800000000000000000000000000000000000000000000000000000400000004000000000000000000000008000000000000000000000000001000000000080008000000000000000000000000000000000000000000000000000000000000000000000000000400000000000000000000000000000000000000000000000000000000000000000000000200000000000000000000000000000800000000000000000000000000000000040000000000000000000000000000000000000000000000000000000000000000000000000000000000000000000000000008000000000000000000000",
      "type": "0x2",
      "transactionHash": "0xff19872425b2b3e58dedd2b037bbbe1d1bbdf6ffb83d4daf433c6cebfa9c0a35",
      "transactionIndex": "0x8",
      "blockHash": "0xe3bb51f6aefb44ea5c09c5effb3fb2ceeaa55ffac2d8d2f7132f14ecaf84d1e9",
      "blockNumber": "0x1a1c154",
      "gasUsed": "0x9733",
      "effectiveGasPrice": "0x6fc23ac00",
      "from": "0x4cf877aca8ed18372bb28791c0c69339c27f7d78",
      "to": "0x8d8dcdc97ca5691d9d8af6a715ba98033dba5a34",
      "contractAddress": null
    },
    {
      "status": "0x1",
      "cumulativeGasUsed": "0x5c9ce",
      "logs": [
        {
          "address": "0x436601d3e1d2d1dfa0010be24331e85e12f1524c",
          "topics": [
            "0x8be0079c531659141344cd1fd0a4f28419497f9722a3daafe3b4186f6b6457e0",
            "0x0000000000000000000000004cf877aca8ed18372bb28791c0c69339c27f7d78",
            "0x000000000000000000000000e60b7f77fe721e40210cb9070f31bfed6565232a"
          ],
          "data": "0x",
          "blockHash": "0xe3bb51f6aefb44ea5c09c5effb3fb2ceeaa55ffac2d8d2f7132f14ecaf84d1e9",
          "blockNumber": "0x1a1c154",
          "transactionHash": "0x46ef3659aab699e43eb2d343ea949d5ad9777968db5d126495ab97cd703aa357",
          "transactionIndex": "0x9",
          "logIndex": "0x7",
          "removed": false
        }
      ],
      "logsBloom": "0x00000000000000000000000000000800000000000000000000800000000000000000000000000000000000000000000000000000000010004000000000000000000000000000000000000000000000000001000000000080008000000000000000000000000000000000000000000000000000000000000000000000000000400000000000000000000000000000000000000000000000000000000000000000000000200000000000000000000000000000008000000000000000000000000000000040000000000000000000000000000000000000000000000000000000000000000000000000000000000000000000000000008000000000000000000000",
      "type": "0x2",
      "transactionHash": "0x46ef3659aab699e43eb2d343ea949d5ad9777968db5d126495ab97cd703aa357",
      "transactionIndex": "0x9",
      "blockHash": "0xe3bb51f6aefb44ea5c09c5effb3fb2ceeaa55ffac2d8d2f7132f14ecaf84d1e9",
      "blockNumber": "0x1a1c154",
      "gasUsed": "0x966d",
      "effectiveGasPrice": "0x6fc23ac00",
      "from": "0x4cf877aca8ed18372bb28791c0c69339c27f7d78",
      "to": "0x436601d3e1d2d1dfa0010be24331e85e12f1524c",
      "contractAddress": null
    }
  ],
  "libraries": [],
  "pending": [],
  "returns": {},
  "timestamp": 1755440578,
  "chain": 1116,
  "commit": "84e75bb"
}