{
  "transactions": [
    {
      "hash": null,
      "transactionType": "CALL",
      "contractName": null,
      "contractAddress": "0xd28d420840a1bc3948a196e7d3fda2da79f0bd99",
      "function": "setVeArtAddress(address)",
      "arguments": [
        "0x4cf877ACA8eD18372BB28791c0c69339c27F7d78"
      ],
      "transaction": {
        "from": "0x4cf877aca8ed18372bb28791c0c69339c27f7d78",
        "to": "0xd28d420840a1bc3948a196e7d3fda2da79f0bd99",
        "gas": "0x133d2",
        "value": "0x0",
        "input": "0x963b94ab0000000000000000000000004cf877aca8ed18372bb28791c0c69339c27f7d78",
        "nonce": "0x54",
        "chainId": "0x45a"
      },
      "additionalContracts": [],
      "isFixedGasLimit": false
    },
    {
      "hash": null,
      "transactionType": "CALL",
      "contractName": null,
      "contractAddress": "0xd28d420840a1bc3948a196e7d3fda2da79f0bd99",
      "function": "setProtocolFee(address,uint96)",
      "arguments": [
        "0x511529B8553b49f2c079E394009f7Bd816ce1bBD",
        "250"
      ],
      "transaction": {
        "from": "0x4cf877aca8ed18372bb28791c0c69339c27f7d78",
        "to": "0xd28d420840a1bc3948a196e7d3fda2da79f0bd99",
        "gas": "0x12239",
        "value": "0x0",
        "input": "0x47e19292000000000000000000000000511529b8553b49f2c079e394009f7bd816ce1bbd00000000000000000000000000000000000000000000000000000000000000fa",
        "nonce": "0x55",
        "chainId": "0x45a"
      },
      "additionalContracts": [],
      "isFixedGasLimit": false
    }
  ],
  "receipts": [],
  "libraries": [],
  "pending": [],
  "returns": {},
  "timestamp": 1754221387,
  "chain": 1114,
  "commit": "d729a98"
}