{
  "transactions": [
    {
      "hash": "0xd4f073bc405f37a1c90de7392b65eec21e1788e2a86ef0d771ffb0e0b068a65c",
      "transactionType": "CALL",
      "contractName": null,
      "contractAddress": "0xd28d420840a1bc3948a196e7d3fda2da79f0bd99",
      "function": "setVeArtAddress(address)",
      "arguments": [
        "0x4cf877ACA8eD18372BB28791c0c69339c27F7d78"
      ],
      "transaction": {
        "from": "0x4cf877aca8ed18372bb28791c0c69339c27f7d78",
        "to": "0xd28d420840a1bc3948a196e7d3fda2da79f0bd99",
        "gas": "0x133d2",
        "value": "0x0",
        "input": "0x963b94ab0000000000000000000000004cf877aca8ed18372bb28791c0c69339c27f7d78",
        "nonce": "0x54",
        "chainId": "0x45a"
      },
      "additionalContracts": [],
      "isFixedGasLimit": false
    },
    {
      "hash": "0x630af905e636fd7f22bdf34fa92f773521469e420bbf573ea5d5e56cea21ad89",
      "transactionType": "CALL",
      "contractName": null,
      "contractAddress": "0xd28d420840a1bc3948a196e7d3fda2da79f0bd99",
      "function": "setProtocolFee(address,uint96)",
      "arguments": [
        "0x511529B8553b49f2c079E394009f7Bd816ce1bBD",
        "250"
      ],
      "transaction": {
        "from": "0x4cf877aca8ed18372bb28791c0c69339c27f7d78",
        "to": "0xd28d420840a1bc3948a196e7d3fda2da79f0bd99",
        "gas": "0x12239",
        "value": "0x0",
        "input": "0x47e19292000000000000000000000000511529b8553b49f2c079e394009f7bd816ce1bbd00000000000000000000000000000000000000000000000000000000000000fa",
        "nonce": "0x55",
        "chainId": "0x45a"
      },
      "additionalContracts": [],
      "isFixedGasLimit": false
    }
  ],
  "receipts": [
    {
      "status": "0x1",
      "cumulativeGasUsed": "0xd27a",
      "logs": [],
      "logsBloom": "0x00000000000000000000000000000000000000000000000000000000000000000000000000000000000000000000000000000000000000000000000000000000000000000000000000000000000000000000000000000000000000000000000000000000000000000000000000000000000000000000000000000000000000000000000000000000000000000000000000000000000000000000000000000000000000000000000000000000000000000000000000000000000000000000000000000000000000000000000000000000000000000000000000000000000000000000000000000000000000000000000000000000000000000000000000000000",
      "type": "0x2",
      "transactionHash": "0xd4f073bc405f37a1c90de7392b65eec21e1788e2a86ef0d771ffb0e0b068a65c",
      "transactionIndex": "0x0",
      "blockHash": "0xf4bba7089ee194f70923b835aa30515db4726c20d169b241c347c9c65a3df419",
      "blockNumber": "0x6ae7d7",
      "gasUsed": "0xd27a",
      "effectiveGasPrice": "0x3b9aca00",
      "from": "0x4cf877aca8ed18372bb28791c0c69339c27f7d78",
      "to": "0xd28d420840a1bc3948a196e7d3fda2da79f0bd99",
      "contractAddress": null
    },
    {
      "status": "0x1",
      "cumulativeGasUsed": "0x1a499",
      "logs": [],
      "logsBloom": "0x00000000000000000000000000000000000000000000000000000000000000000000000000000000000000000000000000000000000000000000000000000000000000000000000000000000000000000000000000000000000000000000000000000000000000000000000000000000000000000000000000000000000000000000000000000000000000000000000000000000000000000000000000000000000000000000000000000000000000000000000000000000000000000000000000000000000000000000000000000000000000000000000000000000000000000000000000000000000000000000000000000000000000000000000000000000",
      "type": "0x2",
      "transactionHash": "0x630af905e636fd7f22bdf34fa92f773521469e420bbf573ea5d5e56cea21ad89",
      "transactionIndex": "0x1",
      "blockHash": "0xf4bba7089ee194f70923b835aa30515db4726c20d169b241c347c9c65a3df419",
      "blockNumber": "0x6ae7d7",
      "gasUsed": "0xd21f",
      "effectiveGasPrice": "0x3b9aca00",
      "from": "0x4cf877aca8ed18372bb28791c0c69339c27f7d78",
      "to": "0xd28d420840a1bc3948a196e7d3fda2da79f0bd99",
      "contractAddress": null
    }
  ],
  "libraries": [],
  "pending": [],
  "returns": {},
  "timestamp": 1754221415,
  "chain": 1114,
  "commit": "d729a98"
}