{
  "transactions": [
    {
      "hash": "0x10f8d56e3ae022effd88918d41f1e36f02c1b8fe633cad770828144e6361d849",
      "transactionType": "CALL",
      "contractName": null,
      "contractAddress": "0xd28d420840a1bc3948a196e7d3fda2da79f0bd99",
      "function": "withdraw(uint256)",
      "arguments": [
        "1121500000000000000"
      ],
      "transaction": {
        "from": "0x4cf877aca8ed18372bb28791c0c69339c27f7d78",
        "to": "0xd28d420840a1bc3948a196e7d3fda2da79f0bd99",
        "gas": "0x11797",
        "value": "0x0",
        "input": "0x2e1a7d4d0000000000000000000000000000000000000000000000000f905e4edb99c000",
        "nonce": "0x59",
        "chainId": "0x45a"
      },
      "additionalContracts": [],
      "isFixedGasLimit": false
    }
  ],
  "receipts": [
    {
      "status": "0x1",
      "cumulativeGasUsed": "0xd2a0",
      "logs": [
        {
          "address": "0xd28d420840a1bc3948a196e7d3fda2da79f0bd99",
          "topics": [
            "0x039d3e7ccc0d8edf3fb8206bf9f58888c4cced8c157c730a2407a54aad7c865c",
            "0x0000000000000000000000004cf877aca8ed18372bb28791c0c69339c27f7d78"
          ],
          "data": "0x0000000000000000000000000000000000000000000000000f905e4edb99c0000000000000000000000000000000000000000000000000000000000000000000",
          "blockHash": "0x17cf4dfc6c8e5406cdf8305d0d68040bc3055699d09d26237fabe172482b97c7",
          "blockNumber": "0x6cb467",
          "transactionHash": "0x10f8d56e3ae022effd88918d41f1e36f02c1b8fe633cad770828144e6361d849",
          "transactionIndex": "0x0",
          "logIndex": "0x0",
          "removed": false
        }
      ],
      "logsBloom": "0x00000000000000000000000000000000002000000000000000000000000000000000000000000000000000000000000000000000000000004000000000000000000000000000800000000000000000000000000004000080000000000000000000000000000000000000000000000000000000000000000000000000000000000000040000400000000000000000010000000000000000000000000000000000000000000000000000000000000000000000000000000000000000000000000000000040000000000000000000000000000000000000000000000000000000000000000000000000000000000000000000000000000000000000000000000000",
      "type": "0x2",
      "transactionHash": "0x10f8d56e3ae022effd88918d41f1e36f02c1b8fe633cad770828144e6361d849",
      "transactionIndex": "0x0",
      "blockHash": "0x17cf4dfc6c8e5406cdf8305d0d68040bc3055699d09d26237fabe172482b97c7",
      "blockNumber": "0x6cb467",
      "gasUsed": "0xd2a0",
      "effectiveGasPrice": "0x174876e800",
      "from": "0x4cf877aca8ed18372bb28791c0c69339c27f7d78",
      "to": "0xd28d420840a1bc3948a196e7d3fda2da79f0bd99",
      "contractAddress": null
    }
  ],
  "libraries": [],
  "pending": [],
  "returns": {},
  "timestamp": 1754575163,
  "chain": 1114,
  "commit": "84e75bb"
}