{
  "transactions": [
    {
      "hash": null,
      "transactionType": "CALL",
      "contractName": null,
      "contractAddress": "0xd28d420840a1bc3948a196e7d3fda2da79f0bd99",
      "function": "transferOwnership(address)",
      "arguments": [
        "0xE60B7f77FE721e40210Cb9070F31Bfed6565232a"
      ],
      "transaction": {
        "from": "0x4cf877aca8ed18372bb28791c0c69339c27f7d78",
        "to": "0xd28d420840a1bc3948a196e7d3fda2da79f0bd99",
        "gas": "0xd101",
        "value": "0x0",
        "input": "0xf2fde38b000000000000000000000000e60b7f77fe721e40210cb9070f31bfed6565232a",
        "nonce": "0x5a",
        "chainId": "0x45a"
      },
      "additionalContracts": [],
      "isFixedGasLimit": false
    },
    {
      "hash": null,
      "transactionType": "CALL",
      "contractName": null,
      "contractAddress": "0x511529b8553b49f2c079e394009f7bd816ce1bbd",
      "function": "transferOwnership(address)",
      "arguments": [
        "0xE60B7f77FE721e40210Cb9070F31Bfed6565232a"
      ],
      "transaction": {
        "from": "0x4cf877aca8ed18372bb28791c0c69339c27f7d78",
        "to": "0x511529b8553b49f2c079e394009f7bd816ce1bbd",
        "gas": "0xd000",
        "value": "0x0",
        "input": "0xf2fde38b000000000000000000000000e60b7f77fe721e40210cb9070f31bfed6565232a",
        "nonce": "0x5b",
        "chainId": "0x45a"
      },
      "additionalContracts": [],
      "isFixedGasLimit": false
    }
  ],
  "receipts": [],
  "libraries": [],
  "pending": [],
  "returns": {},
  "timestamp": 1755269026,
  "chain": 1114,
  "commit": "84e75bb"
}