{
  "transactions": [
    {
      "hash": "0xb8f3a0b659620bedfcd9081bb519839d58817afe494bdfaff5efd7264b30f620",
      "transactionType": "CALL",
      "contractName": null,
      "contractAddress": "0xd28d420840a1bc3948a196e7d3fda2da79f0bd99",
      "function": "transferOwnership(address)",
      "arguments": [
        "0xE60B7f77FE721e40210Cb9070F31Bfed6565232a"
      ],
      "transaction": {
        "from": "0x4cf877aca8ed18372bb28791c0c69339c27f7d78",
        "to": "0xd28d420840a1bc3948a196e7d3fda2da79f0bd99",
        "gas": "0xd101",
        "value": "0x0",
        "input": "0xf2fde38b000000000000000000000000e60b7f77fe721e40210cb9070f31bfed6565232a",
        "nonce": "0x5a",
        "chainId": "0x45a"
      },
      "additionalContracts": [],
      "isFixedGasLimit": false
    },
    {
      "hash": "0x39ab7c0aac34da929ac729646531b637fb121b5585906c5fc37068d71930c058",
      "transactionType": "CALL",
      "contractName": null,
      "contractAddress": "0x511529b8553b49f2c079e394009f7bd816ce1bbd",
      "function": "transferOwnership(address)",
      "arguments": [
        "0xE60B7f77FE721e40210Cb9070F31Bfed6565232a"
      ],
      "transaction": {
        "from": "0x4cf877aca8ed18372bb28791c0c69339c27f7d78",
        "to": "0x511529b8553b49f2c079e394009f7bd816ce1bbd",
        "gas": "0xd000",
        "value": "0x0",
        "input": "0xf2fde38b000000000000000000000000e60b7f77fe721e40210cb9070f31bfed6565232a",
        "nonce": "0x5b",
        "chainId": "0x45a"
      },
      "additionalContracts": [],
      "isFixedGasLimit": false
    }
  ],
  "receipts": [
    {
      "status": "0x1",
      "cumulativeGasUsed": "0x971d",
      "logs": [
        {
          "address": "0xd28d420840a1bc3948a196e7d3fda2da79f0bd99",
          "topics": [
            "0x8be0079c531659141344cd1fd0a4f28419497f9722a3daafe3b4186f6b6457e0",
            "0x0000000000000000000000004cf877aca8ed18372bb28791c0c69339c27f7d78",
            "0x000000000000000000000000e60b7f77fe721e40210cb9070f31bfed6565232a"
          ],
          "data": "0x",
          "blockHash": "0x7bc19431e99c6064d17fdafe81adc0029bf963c09155e88459352f3b0bcc5aa9",
          "blockNumber": "0x703bdf",
          "transactionHash": "0xb8f3a0b659620bedfcd9081bb519839d58817afe494bdfaff5efd7264b30f620",
          "transactionIndex": "0x0",
          "logIndex": "0x0",
          "removed": false
        }
      ],
      "logsBloom": "0x00000000000000000000000000000000002000000000000000800000000000000000000000000000000000000000000000000000000000004000000000000000000000000000000000000000000000000001000004000080008000000000000000000000000000000000000000000000000000000000000000000000000000400000000000400000000000000000000000000000000000000000000000000000000000200000000000000000000000000000000000000000000000000000000000000040000000000000000000000000000000000000000000000000000000000000000000000000000000000000000000000000008000000000000000000000",
      "type": "0x2",
      "transactionHash": "0xb8f3a0b659620bedfcd9081bb519839d58817afe494bdfaff5efd7264b30f620",
      "transactionIndex": "0x0",
      "blockHash": "0x7bc19431e99c6064d17fdafe81adc0029bf963c09155e88459352f3b0bcc5aa9",
      "blockNumber": "0x703bdf",
      "gasUsed": "0x971d",
      "effectiveGasPrice": "0x174876e800",
      "from": "0x4cf877aca8ed18372bb28791c0c69339c27f7d78",
      "to": "0xd28d420840a1bc3948a196e7d3fda2da79f0bd99",
      "contractAddress": null
    },
    {
      "status": "0x1",
      "cumulativeGasUsed": "0x12d8a",
      "logs": [
        {
          "address": "0x511529b8553b49f2c079e394009f7bd816ce1bbd",
          "topics": [
            "0x8be0079c531659141344cd1fd0a4f28419497f9722a3daafe3b4186f6b6457e0",
            "0x0000000000000000000000004cf877aca8ed18372bb28791c0c69339c27f7d78",
            "0x000000000000000000000000e60b7f77fe721e40210cb9070f31bfed6565232a"
          ],
          "data": "0x",
          "blockHash": "0x7bc19431e99c6064d17fdafe81adc0029bf963c09155e88459352f3b0bcc5aa9",
          "blockNumber": "0x703bdf",
          "transactionHash": "0x39ab7c0aac34da929ac729646531b637fb121b5585906c5fc37068d71930c058",
          "transactionIndex": "0x1",
          "logIndex": "0x1",
          "removed": false
        }
      ],
      "logsBloom": "0x00100000000000000000000000000000000000000000000000800000200000000000000000000004000000000000000000000000000000004000000000000000000000000000000000000000000000000001000000000080008000000000000000000000000000000000000000000000000000000000000000000000000000400000000000000000000000000000000000000000000000000000000000000000000000200000000000000000000000000000000000000000000000000000000000000040000000000000000000000000000000000000000000000000000000000000000000000000000000000000000000000000008000000000000000000000",
      "type": "0x2",
      "transactionHash": "0x39ab7c0aac34da929ac729646531b637fb121b5585906c5fc37068d71930c058",
      "transactionIndex": "0x1",
      "blockHash": "0x7bc19431e99c6064d17fdafe81adc0029bf963c09155e88459352f3b0bcc5aa9",
      "blockNumber": "0x703bdf",
      "gasUsed": "0x966d",
      "effectiveGasPrice": "0x174876e800",
      "from": "0x4cf877aca8ed18372bb28791c0c69339c27f7d78",
      "to": "0x511529b8553b49f2c079e394009f7bd816ce1bbd",
      "contractAddress": null
    }
  ],
  "libraries": [],
  "pending": [],
  "returns": {},
  "timestamp": 1755269042,
  "chain": 1114,
  "commit": "84e75bb"
}